{
  "contractName": "Marketplace",
  "abi": [
    {
      "inputs": [],
      "stateMutability": "nonpayable",
      "type": "constructor"
    },
    {
      "anonymous": false,
      "inputs": [
        {
          "indexed": false,
          "internalType": "address",
          "name": "nftContract",
          "type": "address"
        },
        {
          "indexed": false,
          "internalType": "uint256",
          "name": "tokenId",
          "type": "uint256"
        },
        {
          "indexed": false,
          "internalType": "address",
          "name": "seller",
          "type": "address"
        },
        {
          "indexed": false,
          "internalType": "address",
          "name": "owner",
          "type": "address"
        },
        {
          "indexed": false,
          "internalType": "uint256",
          "name": "price",
          "type": "uint256"
        }
      ],
      "name": "NFTListed",
      "type": "event"
    },
    {
      "anonymous": false,
      "inputs": [
        {
          "indexed": false,
          "internalType": "address",
          "name": "nftContract",
          "type": "address"
        },
        {
          "indexed": false,
          "internalType": "uint256",
          "name": "tokenId",
          "type": "uint256"
        },
        {
          "indexed": false,
          "internalType": "address",
          "name": "seller",
          "type": "address"
        },
        {
          "indexed": false,
          "internalType": "address",
          "name": "owner",
          "type": "address"
        },
        {
          "indexed": false,
          "internalType": "uint256",
          "name": "price",
          "type": "uint256"
        }
      ],
      "name": "NFTSold",
      "type": "event"
    },
    {
      "inputs": [],
      "name": "LISTING_FEE",
      "outputs": [
        {
          "internalType": "uint256",
          "name": "",
          "type": "uint256"
        }
      ],
      "stateMutability": "view",
      "type": "function",
      "constant": true
    },
    {
      "inputs": [
        {
          "internalType": "address",
          "name": "_nftContract",
          "type": "address"
        },
        {
          "internalType": "uint256",
          "name": "_tokenId",
          "type": "uint256"
        },
        {
          "internalType": "string",
          "name": "_name",
          "type": "string"
        },
        {
          "internalType": "string",
          "name": "_tokenURI",
          "type": "string"
        }
      ],
      "name": "listNFT",
      "outputs": [],
      "stateMutability": "payable",
      "type": "function",
      "payable": true
    },
    {
      "inputs": [
        {
          "internalType": "address",
          "name": "_nftContract",
          "type": "address"
        },
        {
          "internalType": "uint256",
          "name": "_tokenId",
          "type": "uint256"
        }
      ],
      "name": "buyNFT",
      "outputs": [],
      "stateMutability": "payable",
      "type": "function",
      "payable": true
    },
    {
      "inputs": [
        {
          "internalType": "address",
          "name": "_nftContract",
          "type": "address"
        },
        {
          "internalType": "uint256",
          "name": "_tokenId",
          "type": "uint256"
        }
      ],
      "name": "resellNFT",
      "outputs": [],
      "stateMutability": "payable",
      "type": "function",
      "payable": true
    },
    {
      "inputs": [],
      "name": "getListingFee",
      "outputs": [
        {
          "internalType": "uint256",
          "name": "",
          "type": "uint256"
        }
      ],
      "stateMutability": "view",
      "type": "function",
      "constant": true
    },
    {
      "inputs": [
        {
          "internalType": "uint256",
          "name": "_tokenId",
          "type": "uint256"
        }
      ],
      "name": "getTokenForId",
      "outputs": [
        {
          "components": [
            {
              "internalType": "address",
              "name": "nftContract",
              "type": "address"
            },
            {
              "internalType": "uint256",
              "name": "tokenId",
              "type": "uint256"
            },
            {
              "internalType": "address payable",
              "name": "seller",
              "type": "address"
            },
            {
              "internalType": "address payable",
              "name": "owner",
              "type": "address"
            },
            {
              "internalType": "string",
              "name": "tokenURI",
              "type": "string"
            },
            {
              "internalType": "string",
              "name": "name",
              "type": "string"
            },
            {
              "internalType": "uint256",
              "name": "price",
              "type": "uint256"
            },
            {
              "internalType": "bool",
              "name": "isListed",
              "type": "bool"
            }
          ],
          "internalType": "struct Marketplace.Token",
          "name": "",
          "type": "tuple"
        }
      ],
      "stateMutability": "view",
      "type": "function",
      "constant": true
    },
    {
      "inputs": [],
      "name": "getMarketPlaceBalance",
      "outputs": [
        {
          "internalType": "uint256",
          "name": "",
          "type": "uint256"
        }
      ],
      "stateMutability": "view",
      "type": "function",
      "constant": true
    },
    {
      "inputs": [],
      "name": "getItemsCount",
      "outputs": [
        {
          "internalType": "uint256",
          "name": "",
          "type": "uint256"
        }
      ],
      "stateMutability": "view",
      "type": "function",
      "constant": true
    },
    {
      "inputs": [],
      "name": "getItemsSold",
      "outputs": [
        {
          "internalType": "uint256",
          "name": "",
          "type": "uint256"
        }
      ],
      "stateMutability": "view",
      "type": "function",
      "constant": true
    }
  ],
  "bytecode": "0x6080604052655af3107a400060035534801561001a57600080fd5b50600160008190555033600460006101000a81548173ffffffffffffffffffffffffffffffffffffffff021916908373ffffffffffffffffffffffffffffffffffffffff1602179055506119b5806100736000396000f3fe6080604052600436106100865760003560e01c8063a82ba76f11610059578063a82ba76f1461013a578063b4c49d0914610156578063b8fe6abe14610181578063c4b15141146101ac578063dbcc7575146101d757610086565b80632444a8a61461008b5780632b86ae38146100c8578063512dd020146100f35780639e1001b01461011e575b600080fd5b34801561009757600080fd5b506100b260048036038101906100ad9190611072565b6101f3565b6040516100bf919061127b565b60405180910390f35b3480156100d457600080fd5b506100dd610476565b6040516100ea91906112ac565b60405180910390f35b3480156100ff57600080fd5b5061010861047c565b60405161011591906112ac565b60405180910390f35b610138600480360381019061013391906112f3565b61048d565b005b610154600480360381019061014f91906112f3565b61071e565b005b34801561016257600080fd5b5061016b610ae3565b60405161017891906112ac565b60405180910390f35b34801561018d57600080fd5b50610196610aeb565b6040516101a391906112ac565b60405180910390f35b3480156101b857600080fd5b506101c1610af5565b6040516101ce91906112ac565b60405180910390f35b6101f160048036038101906101ec9190611468565b610b06565b005b6101fb610efc565b60056000838152602001908152602001600020604051806101000160405290816000820160009054906101000a900473ffffffffffffffffffffffffffffffffffffffff1673ffffffffffffffffffffffffffffffffffffffff1673ffffffffffffffffffffffffffffffffffffffff168152602001600182015481526020016002820160009054906101000a900473ffffffffffffffffffffffffffffffffffffffff1673ffffffffffffffffffffffffffffffffffffffff1673ffffffffffffffffffffffffffffffffffffffff1681526020016003820160009054906101000a900473ffffffffffffffffffffffffffffffffffffffff1673ffffffffffffffffffffffffffffffffffffffff1673ffffffffffffffffffffffffffffffffffffffff16815260200160048201805461033690611536565b80601f016020809104026020016040519081016040528092919081815260200182805461036290611536565b80156103af5780601f10610384576101008083540402835291602001916103af565b820191906000526020600020905b81548152906001019060200180831161039257829003601f168201915b505050505081526020016005820180546103c890611536565b80601f01602080910402602001604051908101604052809291908181526020018280546103f490611536565b80156104415780601f1061041657610100808354040283529160200191610441565b820191906000526020600020905b81548152906001019060200180831161042457829003601f168201915b50505050508152602001600682015481526020016007820160009054906101000a900460ff1615151515815250509050919050565b60035481565b60006104886002610e7c565b905090565b6002600054036104d2576040517f08c379a00000000000000000000000000000000000000000000000000000000081526004016104c9906115c4565b60405180910390fd5b600260008190555060008273ffffffffffffffffffffffffffffffffffffffff16636352211e836040518263ffffffff1660e01b815260040161051591906112ac565b602060405180830381865afa158015610532573d6000803e3d6000fd5b505050506040513d601f19601f8201168201806040525081019061055691906115f9565b9050600354341461059c576040517f08c379a000000000000000000000000000000000000000000000000000000000815260040161059390611672565b60405180910390fd5b8273ffffffffffffffffffffffffffffffffffffffff166323b872dd8230856040518463ffffffff1660e01b81526004016105d9939291906116a1565b600060405180830381600087803b1580156105f357600080fd5b505af1158015610607573d6000803e3d6000fd5b505050506000600560008481526020019081526020016000209050338160020160006101000a81548173ffffffffffffffffffffffffffffffffffffffff021916908373ffffffffffffffffffffffffffffffffffffffff160217905550308160030160006101000a81548173ffffffffffffffffffffffffffffffffffffffff021916908373ffffffffffffffffffffffffffffffffffffffff16021790555060018160070160006101000a81548160ff0219169083151502179055506106cf6001610e8a565b7fa0c6c0d02d86fdacecbaa5fdf5894bab204e31a778250474108540733a9b8d19848433306003546040516107089594939291906116d8565b60405180910390a1505060016000819055505050565b600260005403610763576040517f08c379a000000000000000000000000000000000000000000000000000000000815260040161075a906115c4565b60405180910390fd5b600260008190555060008273ffffffffffffffffffffffffffffffffffffffff16636352211e836040518263ffffffff1660e01b81526004016107a691906112ac565b602060405180830381865afa1580156107c3573d6000803e3d6000fd5b505050506040513d601f19601f820116820180604052508101906107e791906115f9565b905060006005600084815260200190815260200160002090508060060154341015610847576040517f08c379a000000000000000000000000000000000000000000000000000000000815260040161083e9061179d565b60405180910390fd5b60003390508160020160009054906101000a900473ffffffffffffffffffffffffffffffffffffffff1673ffffffffffffffffffffffffffffffffffffffff166108fc349081150290604051600060405180830381858888f193505050501580156108b6573d6000803e3d6000fd5b508473ffffffffffffffffffffffffffffffffffffffff166323b872dd843385600101546040518463ffffffff1660e01b81526004016108f8939291906116a1565b600060405180830381600087803b15801561091257600080fd5b505af1158015610926573d6000803e3d6000fd5b505050508473ffffffffffffffffffffffffffffffffffffffff1663a22cb4653360016040518363ffffffff1660e01b81526004016109669291906117cc565b600060405180830381600087803b15801561098057600080fd5b505af1158015610994573d6000803e3d6000fd5b50505050600460009054906101000a900473ffffffffffffffffffffffffffffffffffffffff1673ffffffffffffffffffffffffffffffffffffffff166108fc6003549081150290604051600060405180830381858888f19350505050158015610a02573d6000803e3d6000fd5b50808260030160006101000a81548173ffffffffffffffffffffffffffffffffffffffff021916908373ffffffffffffffffffffffffffffffffffffffff16021790555060008260070160006101000a81548160ff021916908315150217905550610a6d6001610ee6565b7f16f1dbd97e6bf646d429ed186cce832f1f7fd9907814293b83181e9970ab7bd28583600101548460020160009054906101000a900473ffffffffffffffffffffffffffffffffffffffff168434604051610acc959493929190611854565b60405180910390a150505060016000819055505050565b600047905090565b6000600354905090565b6000610b016001610e7c565b905090565b600260005403610b4b576040517f08c379a0000000000000000000000000000000000000000000000000000000008152600401610b42906115c4565b60405180910390fd5b600260008190555060003411610b96576040517f08c379a0000000000000000000000000000000000000000000000000000000008152600401610b8d906118f3565b60405180910390fd5b6003543414610bda576040517f08c379a0000000000000000000000000000000000000000000000000000000008152600401610bd190611672565b60405180910390fd5b8373ffffffffffffffffffffffffffffffffffffffff166323b872dd3330866040518463ffffffff1660e01b8152600401610c17939291906116a1565b600060405180830381600087803b158015610c3157600080fd5b505af1158015610c45573d6000803e3d6000fd5b50505050610c536002610ee6565b6040518061010001604052808573ffffffffffffffffffffffffffffffffffffffff1681526020018481526020013373ffffffffffffffffffffffffffffffffffffffff1681526020013073ffffffffffffffffffffffffffffffffffffffff1681526020018281526020018381526020016003548152602001600115158152506005600085815260200190815260200160002060008201518160000160006101000a81548173ffffffffffffffffffffffffffffffffffffffff021916908373ffffffffffffffffffffffffffffffffffffffff1602179055506020820151816001015560408201518160020160006101000a81548173ffffffffffffffffffffffffffffffffffffffff021916908373ffffffffffffffffffffffffffffffffffffffff16021790555060608201518160030160006101000a81548173ffffffffffffffffffffffffffffffffffffffff021916908373ffffffffffffffffffffffffffffffffffffffff1602179055506080820151816004019080519060200190610de2929190610f85565b5060a0820151816005019080519060200190610dff929190610f85565b5060c0820151816006015560e08201518160070160006101000a81548160ff0219169083151502179055509050507fa0c6c0d02d86fdacecbaa5fdf5894bab204e31a778250474108540733a9b8d1984843330600354604051610e669594939291906116d8565b60405180910390a1600160008190555050505050565b600081600001549050919050565b60008160000154905060008111610ed6576040517f08c379a0000000000000000000000000000000000000000000000000000000008152600401610ecd9061195f565b60405180910390fd5b6001810382600001819055505050565b6001816000016000828254019250508190555050565b604051806101000160405280600073ffffffffffffffffffffffffffffffffffffffff16815260200160008152602001600073ffffffffffffffffffffffffffffffffffffffff168152602001600073ffffffffffffffffffffffffffffffffffffffff1681526020016060815260200160608152602001600081526020016000151581525090565b828054610f9190611536565b90600052602060002090601f016020900481019282610fb35760008555610ffa565b82601f10610fcc57805160ff1916838001178555610ffa565b82800160010185558215610ffa579182015b82811115610ff9578251825591602001919060010190610fde565b5b509050611007919061100b565b5090565b5b8082111561102457600081600090555060010161100c565b5090565b6000604051905090565b600080fd5b600080fd5b6000819050919050565b61104f8161103c565b811461105a57600080fd5b50565b60008135905061106c81611046565b92915050565b60006020828403121561108857611087611032565b5b60006110968482850161105d565b91505092915050565b600073ffffffffffffffffffffffffffffffffffffffff82169050919050565b60006110ca8261109f565b9050919050565b6110da816110bf565b82525050565b6110e98161103c565b82525050565b60006110fa8261109f565b9050919050565b61110a816110ef565b82525050565b600081519050919050565b600082825260208201905092915050565b60005b8381101561114a57808201518184015260208101905061112f565b83811115611159576000848401525b50505050565b6000601f19601f8301169050919050565b600061117b82611110565b611185818561111b565b935061119581856020860161112c565b61119e8161115f565b840191505092915050565b60008115159050919050565b6111be816111a9565b82525050565b6000610100830160008301516111dd60008601826110d1565b5060208301516111f060208601826110e0565b5060408301516112036040860182611101565b5060608301516112166060860182611101565b506080830151848203608086015261122e8282611170565b91505060a083015184820360a08601526112488282611170565b91505060c083015161125d60c08601826110e0565b5060e083015161127060e08601826111b5565b508091505092915050565b6000602082019050818103600083015261129581846111c4565b905092915050565b6112a68161103c565b82525050565b60006020820190506112c1600083018461129d565b92915050565b6112d0816110bf565b81146112db57600080fd5b50565b6000813590506112ed816112c7565b92915050565b6000806040838503121561130a57611309611032565b5b6000611318858286016112de565b92505060206113298582860161105d565b9150509250929050565b600080fd5b600080fd5b7f4e487b7100000000000000000000000000000000000000000000000000000000600052604160045260246000fd5b6113758261115f565b810181811067ffffffffffffffff821117156113945761139361133d565b5b80604052505050565b60006113a7611028565b90506113b3828261136c565b919050565b600067ffffffffffffffff8211156113d3576113d261133d565b5b6113dc8261115f565b9050602081019050919050565b82818337600083830152505050565b600061140b611406846113b8565b61139d565b90508281526020810184848401111561142757611426611338565b5b6114328482856113e9565b509392505050565b600082601f83011261144f5761144e611333565b5b813561145f8482602086016113f8565b91505092915050565b6000806000806080858703121561148257611481611032565b5b6000611490878288016112de565b94505060206114a18782880161105d565b935050604085013567ffffffffffffffff8111156114c2576114c1611037565b5b6114ce8782880161143a565b925050606085013567ffffffffffffffff8111156114ef576114ee611037565b5b6114fb8782880161143a565b91505092959194509250565b7f4e487b7100000000000000000000000000000000000000000000000000000000600052602260045260246000fd5b6000600282049050600182168061154e57607f821691505b60208210810361156157611560611507565b5b50919050565b600082825260208201905092915050565b7f5265656e7472616e637947756172643a207265656e7472616e742063616c6c00600082015250565b60006115ae601f83611567565b91506115b982611578565b602082019050919050565b600060208201905081810360008301526115dd816115a1565b9050919050565b6000815190506115f3816112c7565b92915050565b60006020828403121561160f5761160e611032565b5b600061161d848285016115e4565b91505092915050565b7f4e6f7420656e6f75676820657468657220666f72206c697374696e6720666565600082015250565b600061165c602083611567565b915061166782611626565b602082019050919050565b6000602082019050818103600083015261168b8161164f565b9050919050565b61169b816110bf565b82525050565b60006060820190506116b66000830186611692565b6116c36020830185611692565b6116d0604083018461129d565b949350505050565b600060a0820190506116ed6000830188611692565b6116fa602083018761129d565b6117076040830186611692565b6117146060830185611692565b611721608083018461129d565b9695505050505050565b7f4e6f7420656e6f75676820657468657220746f20636f7665722061736b696e6760008201527f2070726963650000000000000000000000000000000000000000000000000000602082015250565b6000611787602683611567565b91506117928261172b565b604082019050919050565b600060208201905081810360008301526117b68161177a565b9050919050565b6117c6816111a9565b82525050565b60006040820190506117e16000830185611692565b6117ee60208301846117bd565b9392505050565b6000819050919050565b600061181a6118156118108461109f565b6117f5565b61109f565b9050919050565b600061182c826117ff565b9050919050565b600061183e82611821565b9050919050565b61184e81611833565b82525050565b600060a0820190506118696000830188611692565b611876602083018761129d565b6118836040830186611845565b6118906060830185611845565b61189d608083018461129d565b9695505050505050565b7f5072696365206d757374206265206174206c6561737420312077656900000000600082015250565b60006118dd601c83611567565b91506118e8826118a7565b602082019050919050565b6000602082019050818103600083015261190c816118d0565b9050919050565b7f436f756e7465723a2064656372656d656e74206f766572666c6f770000000000600082015250565b6000611949601b83611567565b915061195482611913565b602082019050919050565b600060208201905081810360008301526119788161193c565b905091905056fea26469706673582212201df1222840734338fef6e0c6dc24b882eebb3abf10ff4a537aac2f24fc1863ff64736f6c634300080d0033",
  "immutableReferences": {},
  "source": "// SPDX-License-Identifier: MIT\npragma solidity ^0.8.0;\n\nimport \"./@openzeppelin/contracts/utils/Counters.sol\";\nimport \"./@openzeppelin/contracts/token/ERC721/ERC721.sol\";\nimport \"./@openzeppelin/contracts/security/ReentrancyGuard.sol\";\n\ncontract Marketplace is ReentrancyGuard {\n  using Counters for Counters.Counter;\n  Counters.Counter private _nftsSold;\n  Counters.Counter private _nftCount;\n  uint256 public LISTING_FEE = 0.0001 ether;\n  address payable private _marketOwner;\n  mapping(uint256 => Token) private _idToToken;\n\n  struct Token {\n       address nftContract;\n       uint256 tokenId;\n       address payable seller;\n       address payable owner;\n       string tokenURI;\n       string name;\n       uint256 price;\n       bool isListed;\n   }\n\n  event NFTListed(\n    address nftContract,\n    uint256 tokenId,\n    address seller,\n    address owner,\n    uint256 price\n  );\n  event NFTSold(\n    address nftContract,\n    uint256 tokenId,\n    address seller,\n    address owner,\n    uint256 price\n  );\n\n  constructor() {\n    _marketOwner = payable(msg.sender);\n  }\n\n\n  // List the NFT on the marketplace\n  function listNFT(address _nftContract, uint256 _tokenId, string memory _name, string memory _tokenURI) public payable nonReentrant {\n    require(msg.value > 0, \"Price must be at least 1 wei\");\n    require(msg.value == LISTING_FEE, \"Not enough ether for listing fee\");\n\n    IERC721(_nftContract).transferFrom(msg.sender, address(this), _tokenId);\n    \n    _nftCount.increment();\n\n    _idToToken[_tokenId] = Token(\n      _nftContract,\n      _tokenId, \n      payable(msg.sender),\n      payable(address(this)),\n      _tokenURI, \n      _name, \n      LISTING_FEE,\n      true\n    );\n\n    emit NFTListed(_nftContract, _tokenId, msg.sender, address(this), LISTING_FEE);\n  }\n\n  // Buy an NFT\n  function buyNFT(address _nftContract, uint256 _tokenId) public payable nonReentrant {\n    address owner = IERC721(_nftContract).ownerOf(_tokenId);\n    Token storage nft = _idToToken[_tokenId];\n    require(msg.value >= nft.price, \"Not enough ether to cover asking price\");\n\n    address payable buyer = payable(msg.sender);\n    payable(nft.seller).transfer(msg.value);\n \n    IERC721(_nftContract).transferFrom(owner, msg.sender, nft.tokenId);\n    IERC721(_nftContract).setApprovalForAll(msg.sender, true);\n\n    _marketOwner.transfer(LISTING_FEE);\n    nft.owner = buyer;\n    nft.isListed = false;\n\n    _nftsSold.increment();\n    emit NFTSold(_nftContract, nft.tokenId, nft.seller, buyer, msg.value);\n  }\n\n  // Resell an NFT purchased from the marketplace\n  function resellNFT(address _nftContract, uint256 _tokenId) public payable nonReentrant {\n    address owner = IERC721(_nftContract).ownerOf(_tokenId);\n    require(msg.value == LISTING_FEE, \"Not enough ether for listing fee\");\n\n    // UPDATE\n    IERC721(_nftContract).transferFrom(owner, address(this), _tokenId);\n\n    Token storage nft = _idToToken[_tokenId];\n    nft.seller = payable(msg.sender);\n    nft.owner = payable(address(this));\n    nft.isListed = true;\n\n    _nftsSold.decrement();\n    emit NFTListed(_nftContract, _tokenId, msg.sender, address(this), LISTING_FEE);\n  }\n\n  function getListingFee() public view returns (uint256) {\n    return LISTING_FEE;\n  }\n\n  function getTokenForId(uint256 _tokenId) public view returns (Token memory) {\n       return _idToToken[_tokenId];\n   }\n\n   function getMarketPlaceBalance() public view returns(uint256) {\n       //https://docs.soliditylang.org/en/develop/units-and-global-variables.html#address-related\n       return address(this).balance;\n   }\n\n   function getItemsCount() public view returns(uint256) {\n       return _nftCount.current();\n   }\n   function getItemsSold() public view returns(uint256) {\n       return _nftsSold.current();\n   }\n}\n",
  "sourcePath": "/Users/sandyinstructor/Desktop/DApp-starter/contracts/Marketplace.sol",
  "compiler": {
    "name": "solc",
    "version": "0.8.13+commit.abaa5c0e.Emscripten.clang"
  },
  "schemaVersion": "3.4.7",
  "updatedAt": "2022-11-06T16:28:58.583Z",
  "networkType": "ethereum",
  "devdoc": {
    "kind": "dev",
    "methods": {},
    "version": 1
  },
  "userdoc": {
    "kind": "user",
    "methods": {},
    "version": 1
  }
}